:1010AB003738392F343536583132332D2E303D2BDE
:1010BB00467265713A202020202020202020487A7B
:1010CB000044757479204379636C653A20202020A5
:0210DB002500EE
:100CE00078257C007D007BFF7A1079BB7E007F1128
:100CF000120C9A78367C007D007BFF7A1079CC7ECE
:100D0000007F11120C9AC2B17590F0C2B07F3812F8
:100D100011337F0C1211337F011211337F801211B6
:100D2000337F061211337F01121133E4F52074254D
:100D30002520F8E6FF1211420520E520C39410405B
:100D4000ED7FC0121133E4F52074362520F8E6FF5C
:100D50001211420520E520C3941040ED7F8012114E
:100D600033E4F5207F161211330520E520C39406E5
:100D700040F27F0E121133120ECAAC06AD07E41218
:100D80000B108F0B8E0A8D098C087F007E407D9C96
:100D90007C46AB0BAA0AA909A808120A9E60025059
:100DA000857F0C1211337FC0121133E4F5207F16BA
:100DB0001211330520E520C3940C40F27F0E12116E
:100DC00033120ECAAC06AD07E4120B108F0F8E0E55
:100DD0008D0D8C0C7F0C121133AB0BAA0AA909A83C
:100DE00008E4FFFE7D807C3F120A01E4FBFA797A79
:100DF00078441208F88F1B8E1A8D198C18E4FFFEA8
:100E00007D7A7C44AB1BAA1AA919A8181208F8E429
:100E1000FBFA793478C21208078F1F8E1E8D1D8C45
:100E20001CE4FBFA79C87842120A01AB0FAA0EA99A
:100E30000DA80C1208F88F178E168D158C14AB1791
:100E4000AA16A915A814AF1FAE1EAD1DAC1C120822
:100E5000038F138E128D118C10AB17AA16A915A82B
:100E600014E4FFFE7D807C47120803120B49AD0796
:100E70008D22EE7E00F521AB13AA12A911A810E471
:100E8000FF7D807C47120803120B49AD078D24EECD
:100E90007E00F523D2B1D2B0AD22AF21121111C222
:100EA000B0AD24AF231211228590475347F0E54798
:100EB000B4E0E37F057E001210E58590475347F0CC
:0A0EC000E547B4E0D1C2B1020D26EF
:100ECA00E4F54FF550F549120FEC744A2549F8A696
:100EDA0007744A2549F8E6FFF548B42D047E0180D7
:100EEA00027E00E548B42B047D0180027D00ED4EB0
:100EFA0070D5E548643D600E121142744A2549F8DE
:100F0A0074D026F60549E549640560047F0180022C
:100F1A007F00E548643D60047E0180027E00EE5F4A
:100F2A0070A5E54924FE601914602514603E14601A
:100F3A006924046003020FE7754F00854A50020FC7
:100F4A00E7E54A75F00AA4AEF07C00254B020FE1F2
:100F5A00E54B75F00AA4FDACF0E54A75F064A42DE2
:100F6A00FFE5F03CFE7C00EF254C806BAF4A7E002B
:100F7A007C037DE8120CC0AC06AD07E54B75F06446
:100F8A00A42DFDEC35F0FCE54C75F00AA42DFFE527
:100F9A00F03CFE7C00EF254D803DAF4B7E007C038C
:100FAA007DE8120CC0AA06AB07AF4A7E007C277DFB
:100FBA0010120CC0EF2BFDEE3AFCE54C75F064A460
:100FCA002DFDE5F03CFCE54D75F00AA42DFFE5F09A
:100FDA003CFE7C00EF254EF550EC3EF54FAE4FAF90
:010FEA0050B6
:010FEB0022E3
:0810DD00C2B6D2B77F017E000C
:1010E500EF4E60147D7A7C00ED1D70011CED4C7097
:0810F500F7EF1F70EB1E80E80D
:0110FD0022D0
:1010FE00D287C2B5D2B6308709C2B71210E1D2B7C5
:03110E0080F42248
:0F113300AB071210FE8B80C2B51210DDC2B722BF
:0F114200AB071210FE8B80D2B51210DDC2B722A0
:100FEC007590F0AF905307F0BFF0F57F087E0012BC
:100FFC0010E5AF905307F0EF64F060EF7F087E00D0
:10100C001210E5AF905307F0EF64F060DE5390F0F0
:10101C0043900EAF905307F0EF64F06004E4FB8054
:10102C003A5390F043900DAF905307F0EF64F0609B
:10103C00047B0180265390F043900BAF905307F044
:10104C00EF64F060047B0280125390F0439007AF82
:10105C00905307F0EF64F060027B03BFE00EEB25CA
:10106C00E025E024ABF582E43410802DBFD00EEBEC
:10107C0025E025E024ACF582E43410801CEBBFB0F5
:10108C000D25E025E024ADF582E43410800B25E03D
:0E109C0025E024AEF582E43410F583E493FFE2
:0110AA002223
:101111007589018D8A8F8CD28C308DFDC28CC28DE8
:0111210022AB
:101122007589018D8A8F8CD28C308DFDC28CC28DD7
:01113200229A
:10080000020BB5E86480F8E933E83360110460F066
:10081000ED33EC337009E8FCE9FDEAFEEBFF22045E
:1008200060DED3EB9FEA9EE99DE8C2E78CF0C2F759
:1008300095F0400CE8CCF8E9CDF9EACEFAEBCFFB25
:10084000120B8085D0F05804700320D5B3E80470F3
:10085000075002B2D5020BBF92D5EC0460F7E4CC8E
:10086000C0E0C398F8603B94186008400DD0E0FBEE
:10087000020B97E4FBFAC9FC8028E830E406E4C9DF
:10088000FBE4CAFCE830E305E4C9CACBFCE8540742
:100890006010F8C3E913F9EA13FAEB13FBEC13FC4D
:1008A000D8F130F52FC3E49CFCEF9BFFEE9AFEEDF0
:1008B00099FDD0E0FBEF4E4D4C701222DB03020B92
:1008C000BCEC2CFCEF33FFEE33FEED33FDED30E7F7
:1008D000EB020B97EF2BFFEE3AFEED39FDD0E0FB7C
:1008E00050130BBB0003020BBFED13FDEE13FEEF25
:0808F00013FFEC13FC020B974F
:1008F800EC4D6011E8497017ED33EC3304600DE4FA
:10090800FCFFFEFD22E933E8330470F8020BB51250
:100918000B8058046009E4CC248150062850090251
:100928000BBF284003020BBCC0E0EB4A7044B980FF
:1009380006D0E0FB020BABEF4E701CBD8008EBFF4E
:10094800EAFEE9FD80EBE98DF0A4FEE5F00209E19D
:10095800E9CDF9EAFEEBFFEF89F0A4FCE5F0CE89DA
:10096800F0A42EFFE435F0CD89F0A42DFEE435F097
:100978008067EF4E7005BD80D780C3EF8BF0A4ACC5
:10098800F0EE8BF0A42CFCE435F0F8EF8AF0A42C00
:10099800E5F038FCE433CB8DF0A42CFCE5F03BF813
:1009A800EE8AF0A42CFCE5F038F8E433CF89F0A403
:1009B8002CFCE5F038CF3400CE89F0A42FFFE5F009
:1009C8003EFEE433C98DF0A42EFEE5F039CD8AF061
:1009D800A42FFFE5F03EFEE43DFD33D0E0FB5007D9
:1009E8000BBB000F020BBFEC2CFCEF33FFEE33FE0A
:0609F800ED33FD020B9738
:1009FE00020BBFEC5D046005E859047003020BB5F1
:100A0E00120B80580460F6EC4860F2EC7004FDFEA8
:100A1E00FF22C860DB2481C85009C39860025006CB
:100A2E00020BBC9850CAF582E9294B4A7005AB827D
:100A3E00020BAB75F0007C1A7880C3EF9BEE9AED3B
:100A4E0099400DC3EF9BFFEE9AFEED99FDE842F043
:100A5E00DC23ACF0D0E0FFD0E0FED0E0FDAB822096
:100A6E00E7101BEB60BAEC2CFCEF33FFEE33FEED20
:100A7E0033FD020B97E803F830E705C0F075F00080
:100A8E00EF2FFFEE33FEED33FD40B830E7C280AA04
:100A9E0074F8CC6480CCC86480C8F582046043C30B
:100AAE00EB9FF5F0EA9E42F0E99D42F0E89C45F09E
:100ABE0060305018E5825FFFE582F42B5582FB50C3
:100ACE00210ABA001D09B90019088016E5825BFBE0
:100ADE00E582F42F5582FF50090EBE00050DBD00B4
:100AEE00010CC3EB9FF5F0EA9E42F0E99D42F0E85F
:0D0AFE009C45F06007CC4820E701B3EC22D6
:100B0B0075F020800E75F010800575F0087D007E65
:100B1B00007F003392D530D503120CD2EC3340104A
:100B2B00EF33FFEE33FEED33FDEC33FCD5F0ED226E
:0E0B3B00E5F0247EA2D513CC92E7CDCEFF22AA
:100B4900EDD2E7CD33EC3392D524814006E4FFFEA4
:100B5900FDFC22FCE4CFCECDCC24E0501174FF8003
:100B6900EDC3CC13CCCD13CDCE13CECF13CF0470A0
:070B7900F030D5DE020CD2C2
:100B8000E9D2E7C933E833F892D5EDD2E7CD33ECBB
:070B900033FC5002B2D52234
:100B9700EC30E7100FBF000C0EBE00080DBD0004BF
:100BA7000BEB6014A2D5EB13FCED92E7FD2274FF6B
:100BB700FCFDFEFF22E480F8A2D574FF13FC7D80C4
:030BC700E480EFD8
:0300000002115199
:0C115100787FE4F6D8FD758150020CE0B8
:100BCA00E709F608DFFA8046E709F208DFFA803E0D
:100BDA0088828C83E709F0A3DFFA8032E309F608FA
:100BEA00DFFA8078E309F208DFFA807088828C8362
:100BFA00E309F0A3DFFA806489828A83E0A3F60816
:100C0A00DFFA805889828A83E0A3F208DFFA804CEF
:100C1A0080D280FA80C680D4806980F280338010C6
:100C2A0080A680EA809A80A880DA80E280CA80332F
:100C3A0089828A83ECFAE493A3C8C582C8CCC583A7
:100C4A00CCF0A3C8C582C8CCC583CCDFE9DEE78077
:100C5A000D89828A83E493A3F608DFF9ECFAA9F0F6
:100C6A00EDFB2289828A83ECFAE0A3C8C582C8CC4C
:100C7A00C583CCF0A3C8C582C8CCC583CCDFEADE65
:100C8A00E880DB89828A83E493A3F208DFF980CCC7
:100C9A0088F0EF60010E4E60C388F0ED2402B404C0
:100CAA000050B9F582EB2402B4040050AF23234567
:060CBA008223900C1A7366
:100CC000EF8DF0A4A8F0CF8CF0A428CE8DF0A42E48
:020CD000FE2202
:0E0CD200C3E49FFFE49EFEE49DFDE49CFC2233
:00000001FF
